{
  "contractName": "SimpleStorage",
  "abi": [
    {
      "anonymous": false,
      "inputs": [
        {
          "indexed": true,
          "internalType": "address",
          "name": "from",
          "type": "address"
        },
        {
          "indexed": false,
          "internalType": "uint256",
          "name": "timestamp",
          "type": "uint256"
        },
        {
          "indexed": false,
          "internalType": "string",
          "name": "message",
          "type": "string"
        }
      ],
      "name": "NewHash",
      "type": "event"
    },
    {
      "constant": false,
      "inputs": [
        {
          "internalType": "string",
          "name": "x",
          "type": "string"
        }
      ],
      "name": "set",
      "outputs": [],
      "payable": false,
      "stateMutability": "nonpayable",
      "type": "function"
    },
    {
      "constant": true,
      "inputs": [],
      "name": "get",
      "outputs": [
        {
          "internalType": "string",
          "name": "",
          "type": "string"
        }
      ],
      "payable": false,
      "stateMutability": "view",
      "type": "function"
    },
    {
      "constant": true,
      "inputs": [],
      "name": "getAll",
      "outputs": [
        {
          "components": [
            {
              "internalType": "address",
              "name": "waver",
              "type": "address"
            },
            {
              "internalType": "string",
              "name": "ipfsHash",
              "type": "string"
            },
            {
              "internalType": "uint256",
              "name": "timestamp",
              "type": "uint256"
            }
          ],
          "internalType": "struct SimpleStorage.HashDataObj[]",
          "name": "",
          "type": "tuple[]"
        }
      ],
      "payable": false,
      "stateMutability": "view",
      "type": "function"
    }
  ],
  "bytecode": "0x608060405234801561001057600080fd5b5061091c806100206000396000f3fe608060405234801561001057600080fd5b50600436106100415760003560e01c80634ed3885e1461004657806353ed5143146100625780636d4ce63c14610080575b600080fd5b610060600480360361005b9190810190610553565b61009e565b005b61006a6101d7565b604051610077919061070c565b60405180910390f35b610088610338565b604051610095919061072e565b60405180910390f35b80600090805190602001906100b49291906103da565b50600160405180606001604052803373ffffffffffffffffffffffffffffffffffffffff168152602001838152602001428152509080600181540180825580915050906001820390600052602060002090600302016000909192909190915060008201518160000160006101000a81548173ffffffffffffffffffffffffffffffffffffffff021916908373ffffffffffffffffffffffffffffffffffffffff160217905550602082015181600101908051906020019061017692919061045a565b50604082015181600201555050503373ffffffffffffffffffffffffffffffffffffffff167f73aaf40d8757a2d623401c3b86df5f7d5d0fcb1b71faa385ba20524473dde44e42836040516101cc929190610750565b60405180910390a250565b60606001805480602002602001604051908101604052809291908181526020016000905b8282101561032f57838290600052602060002090600302016040518060600160405290816000820160009054906101000a900473ffffffffffffffffffffffffffffffffffffffff1673ffffffffffffffffffffffffffffffffffffffff1673ffffffffffffffffffffffffffffffffffffffff168152602001600182018054600181600116156101000203166002900480601f01602080910402602001604051908101604052809291908181526020018280546001816001161561010002031660029004801561030d5780601f106102e25761010080835404028352916020019161030d565b820191906000526020600020905b8154815290600101906020018083116102f057829003601f168201915b50505050508152602001600282015481525050815260200190600101906101fb565b50505050905090565b606060008054600181600116156101000203166002900480601f0160208091040260200160405190810160405280929190818152602001828054600181600116156101000203166002900480156103d05780601f106103a5576101008083540402835291602001916103d0565b820191906000526020600020905b8154815290600101906020018083116103b357829003601f168201915b5050505050905090565b828054600181600116156101000203166002900490600052602060002090601f016020900481019282601f1061041b57805160ff1916838001178555610449565b82800160010185558215610449579182015b8281111561044857825182559160200191906001019061042d565b5b50905061045691906104da565b5090565b828054600181600116156101000203166002900490600052602060002090601f016020900481019282601f1061049b57805160ff19168380011785556104c9565b828001600101855582156104c9579182015b828111156104c85782518255916020019190600101906104ad565b5b5090506104d691906104da565b5090565b6104fc91905b808211156104f85760008160009055506001016104e0565b5090565b90565b600082601f83011261051057600080fd5b813561052361051e826107ad565b610780565b9150808252602083016020830185838301111561053f57600080fd5b61054a838284610886565b50505092915050565b60006020828403121561056557600080fd5b600082013567ffffffffffffffff81111561057f57600080fd5b61058b848285016104ff565b91505092915050565b60006105a0838361069e565b905092915050565b6105b18161084a565b82525050565b60006105c2826107e9565b6105cc8185610817565b9350836020820285016105de856107d9565b8060005b8581101561061a57848403895281516105fb8582610594565b94506106068361080a565b925060208a019950506001810190506105e2565b50829750879550505050505092915050565b6000610637826107ff565b6106418185610839565b9350610651818560208601610895565b61065a816108c8565b840191505092915050565b6000610670826107f4565b61067a8185610828565b935061068a818560208601610895565b610693816108c8565b840191505092915050565b60006060830160008301516106b660008601826105a8565b50602083015184820360208601526106ce8282610665565b91505060408301516106e360408601826106ee565b508091505092915050565b6106f78161087c565b82525050565b6107068161087c565b82525050565b6000602082019050818103600083015261072681846105b7565b905092915050565b60006020820190508181036000830152610748818461062c565b905092915050565b600060408201905061076560008301856106fd565b8181036020830152610777818461062c565b90509392505050565b6000604051905081810181811067ffffffffffffffff821117156107a357600080fd5b8060405250919050565b600067ffffffffffffffff8211156107c457600080fd5b601f19601f8301169050602081019050919050565b6000819050602082019050919050565b600081519050919050565b600081519050919050565b600081519050919050565b6000602082019050919050565b600082825260208201905092915050565b600082825260208201905092915050565b600082825260208201905092915050565b60006108558261085c565b9050919050565b600073ffffffffffffffffffffffffffffffffffffffff82169050919050565b6000819050919050565b82818337600083830152505050565b60005b838110156108b3578082015181840152602081019050610898565b838111156108c2576000848401525b50505050565b6000601f19601f830116905091905056fea365627a7a72315820cf80a271001d0c18c92e91e99dddb07cba5148a74f7101ff1fd45bcb1d34f6296c6578706572696d656e74616cf564736f6c63430005100040",
  "source": "// SPDX-License-Identifier: MIT\npragma experimental ABIEncoderV2;\npragma solidity >=0.5.10 < 8.10.0;\n\ncontract SimpleStorage {\n  string ipfsHash;\n\n  event NewHash(address indexed from, uint256 timestamp, string message);\n\n  struct HashDataObj {\n    address waver; \n    string ipfsHash; \n    uint256 timestamp; \n  }\n\n  HashDataObj[] hashobj;\n\n  function set(string memory x) public {\n    ipfsHash = x;\n\n    hashobj.push(HashDataObj(msg.sender, x, block.timestamp));\n\n    emit NewHash(msg.sender, block.timestamp, x);\n\n  }\n\n  function get() public view returns (string memory) {\n    return ipfsHash;\n  }\n\n  function getAll() public view returns (HashDataObj[] memory) {\n    return hashobj;\n  }\n\n}\n",
  "sourcePath": "C:\\Users\\aravi\\Desktop\\SemProjects\\IPL\\IPFS_File_Uploader\\contracts\\SimpleStorage.sol",
  "compiler": {
    "name": "solc",
    "version": "0.5.16+commit.9c3226ce.Emscripten.clang"
  },
  "schemaVersion": "3.4.7",
  "updatedAt": "2022-05-19T17:08:23.966Z",
  "networkType": "ethereum",
  "devdoc": {
    "methods": {}
  },
  "userdoc": {
    "methods": {}
  }
}